{
  "address": "0x9fE46736679d2D9a65F0992F2272dE9f3c7fa6e0",
  "abi": [
    {
      "inputs": [
        {
          "internalType": "contract ERC20",
          "name": "_token",
          "type": "address"
        },
        {
          "internalType": "uint256",
          "name": "_unlockBegin",
          "type": "uint256"
        },
        {
          "internalType": "uint256",
          "name": "_unlockCliff",
          "type": "uint256"
        },
        {
          "internalType": "uint256",
          "name": "_unlockEnd",
          "type": "uint256"
        }
      ],
      "stateMutability": "nonpayable",
      "type": "constructor"
    },
    {
      "anonymous": false,
      "inputs": [
        {
          "indexed": true,
          "internalType": "address",
          "name": "owner",
          "type": "address"
        },
        {
          "indexed": true,
          "internalType": "address",
          "name": "recipient",
          "type": "address"
        },
        {
          "indexed": false,
          "internalType": "uint256",
          "name": "amount",
          "type": "uint256"
        }
      ],
      "name": "Claimed",
      "type": "event"
    },
    {
      "anonymous": false,
      "inputs": [
        {
          "indexed": true,
          "internalType": "address",
          "name": "sender",
          "type": "address"
        },
        {
          "indexed": true,
          "internalType": "address",
          "name": "recipient",
          "type": "address"
        },
        {
          "indexed": false,
          "internalType": "uint256",
          "name": "amount",
          "type": "uint256"
        }
      ],
      "name": "Locked",
      "type": "event"
    },
    {
      "inputs": [
        {
          "internalType": "address",
          "name": "recipient",
          "type": "address"
        },
        {
          "internalType": "uint256",
          "name": "amount",
          "type": "uint256"
        }
      ],
      "name": "claim",
      "outputs": [],
      "stateMutability": "nonpayable",
      "type": "function"
    },
    {
      "inputs": [
        {
          "internalType": "address",
          "name": "owner",
          "type": "address"
        }
      ],
      "name": "claimableBalance",
      "outputs": [
        {
          "internalType": "uint256",
          "name": "",
          "type": "uint256"
        }
      ],
      "stateMutability": "view",
      "type": "function"
    },
    {
      "inputs": [
        {
          "internalType": "address",
          "name": "",
          "type": "address"
        }
      ],
      "name": "claimedAmounts",
      "outputs": [
        {
          "internalType": "uint256",
          "name": "",
          "type": "uint256"
        }
      ],
      "stateMutability": "view",
      "type": "function"
    },
    {
      "inputs": [
        {
          "internalType": "address",
          "name": "recipient",
          "type": "address"
        },
        {
          "internalType": "uint256",
          "name": "amount",
          "type": "uint256"
        }
      ],
      "name": "lock",
      "outputs": [],
      "stateMutability": "nonpayable",
      "type": "function"
    },
    {
      "inputs": [
        {
          "internalType": "address",
          "name": "",
          "type": "address"
        }
      ],
      "name": "lockedAmounts",
      "outputs": [
        {
          "internalType": "uint256",
          "name": "",
          "type": "uint256"
        }
      ],
      "stateMutability": "view",
      "type": "function"
    },
    {
      "inputs": [],
      "name": "token",
      "outputs": [
        {
          "internalType": "contract ERC20",
          "name": "",
          "type": "address"
        }
      ],
      "stateMutability": "view",
      "type": "function"
    },
    {
      "inputs": [],
      "name": "unlockBegin",
      "outputs": [
        {
          "internalType": "uint256",
          "name": "",
          "type": "uint256"
        }
      ],
      "stateMutability": "view",
      "type": "function"
    },
    {
      "inputs": [],
      "name": "unlockCliff",
      "outputs": [
        {
          "internalType": "uint256",
          "name": "",
          "type": "uint256"
        }
      ],
      "stateMutability": "view",
      "type": "function"
    },
    {
      "inputs": [],
      "name": "unlockEnd",
      "outputs": [
        {
          "internalType": "uint256",
          "name": "",
          "type": "uint256"
        }
      ],
      "stateMutability": "view",
      "type": "function"
    }
  ],
  "transactionHash": "0xbe90f0f013c443fcccdb6271318a0b19e1a6a0de6eb0e50e903ff8da68266134",
  "args": [
    "0x5FbDB2315678afecb367f032d93F642f64180aa3",
    1672531200,
    1672531200,
    1735689600
  ],
  "solcInputHash": "056c892239ca3f579c6f2c0389f88f32",
  "bytecode": "0x61010060405234801561001157600080fd5b506040516109eb3803806109eb83398101604081905261003091610145565b828210156100ab5760405162461bcd60e51b815260206004820152603960248201527f45524332304c6f636b65643a20556e6c6f636b20636c696666206d757374206e60448201527f6f74206265206265666f726520756e6c6f636b20626567696e0000000000000060648201526084015b60405180910390fd5b818110156101215760405162461bcd60e51b815260206004820152603760248201527f45524332304c6f636b65643a20556e6c6f636b20656e64206d757374206e6f7460448201527f206265206265666f726520756e6c6f636b20636c69666600000000000000000060648201526084016100a2565b60609390931b6001600160601b03191660805260a09190915260c05260e05261018e565b6000806000806080858703121561015a578384fd5b84516001600160a01b0381168114610170578485fd5b60208601516040870151606090970151919890975090945092505050565b60805160601c60a05160c05160e0516107ea61020160003960008181610189015281816101ec0152818161045701526104b501526000818161012f015261040401526000818160ad0152818161049401526104de0152600081816101b0015281816102ec015261059d01526107ea6000f3fe608060405234801561001057600080fd5b50600436106100a35760003560e01c8063904c66ec11610076578063aad3ec961161005b578063aad3ec9614610171578063e6e25d1014610184578063fc0c546a146101ab57600080fd5b8063904c66ec1461012a578063a8c7a08a1461015157600080fd5b8063239fd611146100a8578063282d3fdf146100e257806360f3309b146100f757806371417b321461010a575b600080fd5b6100cf7f000000000000000000000000000000000000000000000000000000000000000081565b6040519081526020015b60405180910390f35b6100f56100f03660046106e7565b6101ea565b005b6100cf6101053660046106c6565b610400565b6100cf6101183660046106c6565b60016020526000908152604090205481565b6100cf7f000000000000000000000000000000000000000000000000000000000000000081565b6100cf61015f3660046106c6565b60006020819052908152604090205481565b6100f561017f3660046106e7565b610521565b6100cf7f000000000000000000000000000000000000000000000000000000000000000081565b6101d27f000000000000000000000000000000000000000000000000000000000000000081565b6040516001600160a01b0390911681526020016100d9565b7f000000000000000000000000000000000000000000000000000000000000000042106102845760405162461bcd60e51b815260206004820152602960248201527f546f6b656e4c6f636b3a20556e6c6f636b20706572696f6420616c726561647960448201527f20636f6d706c657465000000000000000000000000000000000000000000000060648201526084015b60405180910390fd5b6001600160a01b038216600090815260208190526040812080548392906102ac908490610730565b90915550506040517f23b872dd000000000000000000000000000000000000000000000000000000008152336004820152306024820152604481018290527f00000000000000000000000000000000000000000000000000000000000000006001600160a01b0316906323b872dd90606401602060405180830381600087803b15801561033857600080fd5b505af115801561034c573d6000803e3d6000fd5b505050506040513d601f19601f820116820180604052508101906103709190610710565b6103bc5760405162461bcd60e51b815260206004820152601a60248201527f546f6b656e4c6f636b3a205472616e73666572206661696c6564000000000000604482015260640161027b565b6040518181526001600160a01b0383169033907f989eaa915cbb416ea3d6f9a63b1a3de51770c7674b11fe21ecdf76b4e1d139109060200160405180910390a35050565b60007f000000000000000000000000000000000000000000000000000000000000000042101561043257506000919050565b6001600160a01b038216600090815260208181526040808320546001909252909120547f0000000000000000000000000000000000000000000000000000000000000000421061048e576104868183610787565b949350505050565b806104d97f00000000000000000000000000000000000000000000000000000000000000007f0000000000000000000000000000000000000000000000000000000000000000610787565b6105037f000000000000000000000000000000000000000000000000000000000000000042610787565b61050d9085610768565b6105179190610748565b6104869190610787565b600061052c33610400565b90508082111561053a578091505b3360009081526001602052604081208054849290610559908490610730565b90915550506040517fa9059cbb0000000000000000000000000000000000000000000000000000000081526001600160a01b038481166004830152602482018490527f0000000000000000000000000000000000000000000000000000000000000000169063a9059cbb90604401602060405180830381600087803b1580156105e157600080fd5b505af11580156105f5573d6000803e3d6000fd5b505050506040513d601f19601f820116820180604052508101906106199190610710565b6106655760405162461bcd60e51b815260206004820152601a60248201527f546f6b656e4c6f636b3a205472616e73666572206661696c6564000000000000604482015260640161027b565b6040518281526001600160a01b0384169033907ff7a40077ff7a04c7e61f6f26fb13774259ddf1b6bce9ecf26a8276cdd39926839060200160405180910390a3505050565b80356001600160a01b03811681146106c157600080fd5b919050565b6000602082840312156106d7578081fd5b6106e0826106aa565b9392505050565b600080604083850312156106f9578081fd5b610702836106aa565b946020939093013593505050565b600060208284031215610721578081fd5b815180151581146106e0578182fd5b600082198211156107435761074361079e565b500190565b60008261076357634e487b7160e01b81526012600452602481fd5b500490565b60008160001904831182151516156107825761078261079e565b500290565b6000828210156107995761079961079e565b500390565b634e487b7160e01b600052601160045260246000fdfea26469706673582212205bdeb8da40db01a5416845d3f4b5f6684f042524ee4ec66c5f54fdfbc24b47d264736f6c63430008040033",
  "devdoc": {
    "details": "Time-locks tokens according to an unlock schedule.",
    "kind": "dev",
    "methods": {
      "claim(address,uint256)": {
        "details": "Claims the caller's tokens that have been unlocked, sending them to `recipient`.",
        "params": {
          "amount": "The amount to transfer. If greater than the claimable amount, the maximum is transferred.",
          "recipient": "The account to transfer unlocked tokens to."
        }
      },
      "claimableBalance(address)": {
        "details": "Returns the maximum number of tokens currently claimable by `owner`.",
        "params": {
          "owner": "The account to check the claimable balance of."
        },
        "returns": {
          "_0": "The number of tokens currently claimable."
        }
      },
      "constructor": {
        "details": "Constructor.",
        "params": {
          "_token": "The token this contract will lock.l",
          "_unlockBegin": "The time at which unlocking of tokens will be gin.",
          "_unlockCliff": "The first time at which tokens are claimable.",
          "_unlockEnd": "The time at which the last token will unlock."
        }
      },
      "lock(address,uint256)": {
        "details": "Transfers tokens from the caller to the token lock contract and locks them for benefit of `recipient`.      Requires that the caller has authorised this contract with the token contract.",
        "params": {
          "amount": "The number of tokens to transfer and lock.",
          "recipient": "The account the tokens will be claimable by."
        }
      }
    },
    "version": 1
  },
  "userdoc": {
    "kind": "user",
    "methods": {},
    "version": 1
  },
  "storageLayout": {
    "storage": [
      {
        "astId": 1055,
        "contract": "contracts/TokenLock.sol:TokenLock",
        "label": "lockedAmounts",
        "offset": 0,
        "slot": "0",
        "type": "t_mapping(t_address,t_uint256)"
      },
      {
        "astId": 1059,
        "contract": "contracts/TokenLock.sol:TokenLock",
        "label": "claimedAmounts",
        "offset": 0,
        "slot": "1",
        "type": "t_mapping(t_address,t_uint256)"
      }
    ],
    "types": {
      "t_address": {
        "encoding": "inplace",
        "label": "address",
        "numberOfBytes": "20"
      },
      "t_mapping(t_address,t_uint256)": {
        "encoding": "mapping",
        "key": "t_address",
        "label": "mapping(address => uint256)",
        "numberOfBytes": "32",
        "value": "t_uint256"
      },
      "t_uint256": {
        "encoding": "inplace",
        "label": "uint256",
        "numberOfBytes": "32"
      }
    }
  }
}