{
  "address": "0xe7f1725E7734CE288F8367e1Bb143E90bb3F0512",
  "abi": [
    {
      "inputs": [
        {
          "internalType": "address",
          "name": "token_",
          "type": "address"
        },
        {
          "internalType": "bytes32",
          "name": "merkleRoot_",
          "type": "bytes32"
        }
      ],
      "stateMutability": "nonpayable",
      "type": "constructor"
    },
    {
      "anonymous": false,
      "inputs": [
        {
          "indexed": false,
          "internalType": "uint256",
          "name": "index",
          "type": "uint256"
        },
        {
          "indexed": false,
          "internalType": "address",
          "name": "account",
          "type": "address"
        },
        {
          "indexed": false,
          "internalType": "uint256",
          "name": "amount",
          "type": "uint256"
        }
      ],
      "name": "Claimed",
      "type": "event"
    },
    {
      "inputs": [
        {
          "internalType": "uint256",
          "name": "index",
          "type": "uint256"
        },
        {
          "internalType": "address",
          "name": "account",
          "type": "address"
        },
        {
          "internalType": "uint256",
          "name": "amount",
          "type": "uint256"
        },
        {
          "internalType": "bytes32[]",
          "name": "merkleProof",
          "type": "bytes32[]"
        }
      ],
      "name": "claim",
      "outputs": [],
      "stateMutability": "nonpayable",
      "type": "function"
    },
    {
      "inputs": [
        {
          "internalType": "uint256",
          "name": "index",
          "type": "uint256"
        }
      ],
      "name": "isClaimed",
      "outputs": [
        {
          "internalType": "bool",
          "name": "",
          "type": "bool"
        }
      ],
      "stateMutability": "view",
      "type": "function"
    },
    {
      "inputs": [],
      "name": "merkleRoot",
      "outputs": [
        {
          "internalType": "bytes32",
          "name": "",
          "type": "bytes32"
        }
      ],
      "stateMutability": "view",
      "type": "function"
    },
    {
      "inputs": [],
      "name": "token",
      "outputs": [
        {
          "internalType": "address",
          "name": "",
          "type": "address"
        }
      ],
      "stateMutability": "view",
      "type": "function"
    }
  ],
  "transactionHash": "0xb11509da90b4caf0ccc9f43bc3dcd585db90ee96ccdb4ec8e75e6d1d3b6456d5",
  "args": [
    "0x5FbDB2315678afecb367f032d93F642f64180aa3",
    "0x7303fa15df153525f19bfb1cd9db0b88db7b738b30ce4f69dd955327500432df"
  ],
  "solcInputHash": "056c892239ca3f579c6f2c0389f88f32",
  "bytecode": "0x608060405234801561001057600080fd5b506040516106ac3803806106ac83398101604081905261002f91610058565b600080546001600160a01b0319166001600160a01b039390931692909217909155600155610090565b6000806040838503121561006a578182fd5b82516001600160a01b0381168114610080578283fd5b6020939093015192949293505050565b61060d8061009f6000396000f3fe608060405234801561001057600080fd5b506004361061004c5760003560e01c80632e7ba6ef146100515780632eb4a7ab146100665780639e34070f14610082578063fc0c546a146100c4575b600080fd5b61006461005f366004610511565b6100ef565b005b61006f60015481565b6040519081526020015b60405180910390f35b6100b46100903660046104f9565b600881901c600090815260026020526040812054600160ff84161b16151592915050565b6040519015158152602001610079565b6000546100d7906001600160a01b031681565b6040516001600160a01b039091168152602001610079565b600885901c600090815260026020526040902054600160ff87161b16156101835760405162461bcd60e51b815260206004820152602a60248201527f507562546f6b656e4469737472696275746f723a2044726f7020616c7265616460448201527f7920636c61696d65642e0000000000000000000000000000000000000000000060648201526084015b60405180910390fd5b60408051602081018790526bffffffffffffffffffffffff19606087901b16918101919091526054810184905260009060740160405160208183030381529060405280519060200120905061020f838380806020026020016040519081016040528093929190818152602001838360200280828437600092019190915250506001549150849050610402565b6102815760405162461bcd60e51b815260206004820152602360248201527f507562546f6b656e4469737472696275746f723a20496e76616c69642070726f60448201527f6f662e0000000000000000000000000000000000000000000000000000000000606482015260840161017a565b600886901c60009081526002602052604090208054600160ff89161b1790556000546040517fa9059cbb0000000000000000000000000000000000000000000000000000000081526001600160a01b038781166004830152602482018790529091169063a9059cbb90604401602060405180830381600087803b15801561030757600080fd5b505af115801561031b573d6000803e3d6000fd5b505050506040513d601f19601f8201168201806040525081019061033f91906104d2565b6103b15760405162461bcd60e51b815260206004820152602560248201527f507562546f6b656e4469737472696275746f723a205472616e7366657220666160448201527f696c65642e000000000000000000000000000000000000000000000000000000606482015260840161017a565b604080518781526001600160a01b03871660208201529081018590527f4ec90e965519d92681267467f775ada5bd214aa92c0dc93d90a5e880ce9ed0269060600160405180910390a1505050505050565b60008261040f8584610418565b14949350505050565b600081815b84518110156104ca57600085828151811061044857634e487b7160e01b600052603260045260246000fd5b6020026020010151905080831161048a5760408051602081018590529081018290526060016040516020818303038152906040528051906020012092506104b7565b60408051602081018390529081018490526060016040516020818303038152906040528051906020012092505b50806104c2816105b0565b91505061041d565b509392505050565b6000602082840312156104e3578081fd5b815180151581146104f2578182fd5b9392505050565b60006020828403121561050a578081fd5b5035919050565b600080600080600060808688031215610528578081fd5b8535945060208601356001600160a01b0381168114610545578182fd5b935060408601359250606086013567ffffffffffffffff80821115610568578283fd5b818801915088601f83011261057b578283fd5b813581811115610589578384fd5b8960208260051b850101111561059d578384fd5b9699959850939650602001949392505050565b60006000198214156105d057634e487b7160e01b81526011600452602481fd5b506001019056fea2646970667358221220ff398267423cac8e95b9dd45bcf6043ebbafe56762255460806fea71ade75aa864736f6c63430008040033",
  "devdoc": {
    "kind": "dev",
    "methods": {
      "isClaimed(uint256)": {
        "details": "Returns true if the claim at the given index in the merkle tree has already been made.",
        "params": {
          "index": "The index into the merkle tree."
        }
      }
    },
    "version": 1
  },
  "userdoc": {
    "kind": "user",
    "methods": {},
    "version": 1
  },
  "storageLayout": {
    "storage": [
      {
        "astId": 929,
        "contract": "contracts/TokenDistributor.sol:TokenDistributor",
        "label": "token",
        "offset": 0,
        "slot": "0",
        "type": "t_address"
      },
      {
        "astId": 931,
        "contract": "contracts/TokenDistributor.sol:TokenDistributor",
        "label": "merkleRoot",
        "offset": 0,
        "slot": "1",
        "type": "t_bytes32"
      },
      {
        "astId": 934,
        "contract": "contracts/TokenDistributor.sol:TokenDistributor",
        "label": "claimed",
        "offset": 0,
        "slot": "2",
        "type": "t_struct(BitMap)766_storage"
      }
    ],
    "types": {
      "t_address": {
        "encoding": "inplace",
        "label": "address",
        "numberOfBytes": "20"
      },
      "t_bytes32": {
        "encoding": "inplace",
        "label": "bytes32",
        "numberOfBytes": "32"
      },
      "t_mapping(t_uint256,t_uint256)": {
        "encoding": "mapping",
        "key": "t_uint256",
        "label": "mapping(uint256 => uint256)",
        "numberOfBytes": "32",
        "value": "t_uint256"
      },
      "t_struct(BitMap)766_storage": {
        "encoding": "inplace",
        "label": "struct BitMaps.BitMap",
        "members": [
          {
            "astId": 765,
            "contract": "contracts/TokenDistributor.sol:TokenDistributor",
            "label": "_data",
            "offset": 0,
            "slot": "0",
            "type": "t_mapping(t_uint256,t_uint256)"
          }
        ],
        "numberOfBytes": "32"
      },
      "t_uint256": {
        "encoding": "inplace",
        "label": "uint256",
        "numberOfBytes": "32"
      }
    }
  }
}